:0400000078EF3FF066
:107EF0000001C9EF3FF0000EC76E280EC66E000EDF
:107F0000C56E310EC86E1200C580C5B08AEF3FF055
:107F10008CEF3FF085EF3FF01200C584C5B493EFBE
:107F20003FF095EF3FF08EEF3FF01200016E9EA8FC
:107F30009CEF3FF09EEF3FF097EF3FF001C0ADFFA9
:107F40001200016E9E9601C0C9FF9EA6AAEF3FF0E7
:107F5000ACEF3FF0A5EF3FF01200016EC586C5B64D
:107F6000B4EF3FF0B6EF3FF0AFEF3FF001B0BBEF43
:107F70003FF0BEEF3FF0C58ABFEF3FF0C59AC5881E
:107F8000C5B8C5EF3FF0C7EF3FF0C0EF3FF0C950B5
:107F90001200810EAF6E240EAC6E900EAB6E180EFA
:107FA000946E000E036E000E026E024A032A03BE98
:107FB000E3EF3FF0110E025C270E0358D8A0E3EF69
:107FC0003FF0E5EF3FF0D5EF3FF07BEC3FF084EC86
:107FD0003FF0330EA1EC3FF0000EADEC3FF0046E2D
:107FE000045096EC3FF0010EADEC3FF0046E0450EF
:107FF00096EC3FF08DEC3FF0FCEF3FF000EF00F02F
:020000040020DA
:08000000FFFFFFFFFFFFFFFF00
:020000040030CA
:0E000000FF071F1FFF8285FF0FC00FE00F409C
:00000001FF
