S01100006932635F736C6176652E737265639B
S11300000C942A000C9434000C9434000C943400A6
S11300100C9434000C9434000C9434000C9434008C
S11300200C9434000C9434000C9434000C9434007C
S11300300C9434000C9434000C9434000C9434006C
S11300400C9434000C9434000C9434000C9434005C
S11300500C94340011241FBECFE5D8E0DEBFCDBF21
S11300600E944C000C9457000C94000014BA82E3D4
S113007082B984E486BF86B7806886BF06B607FE69
S1130080FDCF089583B984E486BF86B7806886BFB0
S113009006B607FEFDCF08958FEF81BB0E943600A0
S11300A089B30E94420080B30E944200FFCFF894BB
S10500B0FFCF7C
S9030000FC
